:020000040000FA
:0600000059EF02F01200AE
:020006000000F8
:08000800D9CFE6FFE1CFD9FFDB
:100010000F0E831695169594959295908C948C92CC
:100020008C90B2EC00F0300E3CD8050EE66E0CEC75
:1000300002F0E552300E35D8010EE66E0CEC02F0FF
:10004000E552320E2ED824D8FEE122D8FEE1FE0E73
:10005000DBCFE6FFA5EC01F0E5521AD8FEE1080E71
:1000600020D816D8FEE10F0E1CD812D8FEE1010EE2
:1000700018D80ED8FEE1040E14D80AD8FEE1800E7E
:10008000E66E3AEC01F0E552E552E7CFD9FF1200F7
:1000900023EC02F0F3CF02F0F4CF03F0F350F410AE
:0C00A0001200E66EA5EC01F0E552120023
:0400AC00060EF66ED8
:1000B000000EF76E000EF86E04010900F550866F11
:1000C0000900F550876F03E1866701D03DD0090034
:1000D000F550816F0900F550826F0900F550836F6C
:1000E00009000900F550E96E0900F550EA6E0900B3
:1000F00009000900F550846F0900F550856F09006B
:100100000900F6CF88F4F7CF89F4F8CF8AF481C4D8
:10011000F6FF82C4F7FF83C4F8FF0401845302E1B1
:10012000855307E00900F550EE6E8407F8E2850775
:10013000F9D788C4F6FF89C4F7FF8AC4F8FF040121
:0A0140008607000E875BBFD7120090
:06014A00000000000000AF
:10015000000000000000000000000000000000009F
:10016000000012000F0EE66E39EC02F0E5521200AC
:10017000050EE66E39EC02F0E5521200280EE66E2E
:1001800004EC00F0E5521BD8FEE1280E21D817D868
:10019000FEE10F0E1DD813D8FEE1060EE8EF00F0C9
:1001A000EDDF0DD8FEE1430EE66E3AEC01F0E552CC
:1001B000CE0EE66E040EE66EEDEC00F0FFD723ECFB
:1001C00002F0F3CF02F0F4CF03F0F350F41012007A
:0A01D000E66EA5EC01F0E552120006
:0601DA00D9CFE6FFE1CFE2
:1001E000D9FF19D814E023EC02F0F3CF02F0F4CFDA
:1001F00003F0F350F410F7E10ED8E66E82EC01F054
:10020000E552FD0EDB2AFE0EECE3DB2AEAD7E552CF
:10021000E7CFD9FF1200FD0EDBCFF6FFFE0EDBCFDE
:08022000F7FF0800F550120081
:08022800D9CFE6FFE1CFD9FFB9
:1002300019D814E023EC02F0F3CF02F0F4CF03F06E
:10024000F350F410F7E10ED8E66E82EC01F0E552BF
:10025000FD0EDB2AFE0EECE3DB2AEAD7E552E7CF00
:10026000D9FF1200FD0EDBCFE9FFFE0EDBCFEAFF68
:04027000EF50120039
:0C027400D9CFE6FFE1CFD9FF0F0E9516A1
:100280008316FE0EDB508009F00B83128C948C9247
:100290000ED80F0E8316FE0EDB38F00BF00B831218
:1002A00006D8F00E9512E552E7CFD9FF1200A5EC63
:0C02B00000F08C80A5EC00F08C90120097
:0402BC00D9CFE6FFB1
:1002C000E1CFD9FF0F0E95168316FE0EDB504009C5
:1002D000F00B83128C948C920ED80F0E8316FE0EA8
:1002E000DB38F00BF00B831206D8F00E9512E552B6
:1002F000E7CFD9FF1200A5EC00F08C80A5EC00F050
:040300008C901200CB
:0C030400D9CFE6FFE1CFD9FF0F0E951610
:100310008316FE0EDB50F00B83128C828C940ED869
:100320000F0E8316FE0EDB38F00BF00B831206D88F
:10033000F00E9512E552E7CFD9FF1200A5EC00F0C0
:0A0340008C80A5EC00F08C901200F8
:06034A00D9CFE6FFE1CF70
:10035000D9FF0F0E95168316FE0EDB50F00B83129D
:100360008C948C920ED80F0E8316FE0EDB38F00B99
:10037000F00B831206D8F00E9512E552E7CFD9FFA5
:100380001200A5EC00F08C80A5EC00F08C9012001F
:10039000D9CFE6FFE1CFD9FFE6528C848C82A5EC61
:1003A00000F08C80A5EC00F0F00E8314DF6E8C90D2
:1003B000A5EC00F08C80A5EC00F083380F0B0F0B40
:1003C000DF128C908C928C94DF50E552E552E7CF8F
:0403D000D9FF12003F
:0C03D400D9CFE6FFE1CFD9FFE6528C84C0
:1003E0008C92A5EC00F08C80A5EC00F0F00E83144C
:1003F000DF6E8C90A5EC00F08C80A5EC00F08338CB
:100400000F0B0F0BDF128C908C947F0EDF14E552D4
:08041000E552E7CFD9FF12000D
:08041800FF0EE350056EEF0E2C
:1004200001D0F30EE76EE72E13EF02F00C0E046E10
:10043000E76AE72E19EF02F0042E18EF02F0052EFE
:0604400011EF02F01200B2
:0A0446008C848C92A5EC00F08C80F1
:10045000A5EC00F083AE02D003D8010C01D8000C4B
:100460008C90A5EC00F08C80A5EC00F08C908C9426
:02047000120078
:0E047200FF0EE350056E480E01D04C0EE76EF3
:10048000E72EFED7E76AE72EFED7052EF7D7000046
:02049000120058
:0E049200000EF36E00EE00F0060E01D8120010
:1004A000EA6002D0EE6AFCD7F350E9601200EE6A0F
:0204B000FCD777
:0E04B20013EE81F023EE81F0F86A019C56EC07
:0E04C00000F06DEC02F0D0EC00F0FBD7120063
:0204CE0048657F
:0A04D0006C6C6F20576F726C6400B3
:0204DA0012000E
:020000040030CA
:0100010022DC
:010003000EEE
:010006008178
:00000001FF
